:0A0ABB004710006009000000000869
:10028A00E4F513F512F511F510C203C200C202C259
:10029A00011206B87E057F008E4F8F50755A05757C
:1002AA005B12754D05754E1C75560575575F755C65
:1002BA0005755DA290E680E030E70E854D51854ECA
:1002CA0052855653855754800C8556518557528509
:1002DA004D53854E54EE54E070030203F575140035
:1002EA007515807E057F008E168F17C374EE9FFFEB
:1002FA0074059ECF2402CF3400FEE48F0F8E0EF5D4
:10030A000DF50CF50BF50AF509F508AF0FAE0EADB4
:10031A000DAC0CAB0BAA0AA909A808C312076950AD
:10032A0026E515250BF582E514350AF58374CDF01B
:10033A00E50B2401F50BE4350AF50AE43509F5095C
:10034A00E43508F50880C4E4F50BF50AF509F50863
:10035A00AF0FAE0EAD0DAC0CAB0BAA0AA909A808DB
:10036A00C31207695033E517250BF582E516350ADE
:10037A00F583E0FFE515250BF582E514350AF583CB
:10038A00EFF0E50B2401F50BE4350AF50AE435092B
:10039A00F509E43508F50880B785144F85155074BA
:1003AA00002480FF740534FFFEC3E55B9FF55BE51F
:1003BA005A9EF55AC3E5529FF552E5519EF551C32F
:1003CA00E5549FF554E5539EF553C3E54E9FF54E0C
:1003DA00E54D9EF54DC3E5579FF557E5569EF556F3
:1003EA00C3E55D9FF55DE55C9EF55CD2E843D820E8
:1003FA0090E668E04409F090E65CE0443DF0D2AF54
:10040A00D204120921538EF8C2033001051200806A
:10041A00C201300329120B0B5024C203120A1F20F7
:10042A00001690E682E030E704E020E1EF90E682F1
:10043A00E030E604E020E0E412097E120B0D120916
:03044A005080C718
:1000800090E6B9E012077A01EB0002300102560354
:1000900001640601E50801DF0901D30A01D90B005B
:1000A000AC2001052102822200000276754C07C2B5
:1000B000E890E6B57401F0E490E68BF090E6B5F0D8
:1000C000D2E890E68BE0B54CF9000000E4F558F575
:1000D00059C3E559954C7480F8655898400302025D
:1000E00082AF5974402FF582E434E7F583E0FE7463
:1000F000002FF582E43410F583EEF00559E55970D0
:10010000D0055880CC90E6B57401F0754C07E4F545
:1001100058F559C3E559954C7480F86558985024A2
:10012000AF5974002FF582E43410F583E0FE74407B
:100130002FF582E434E7F583EEF00559E55970D3E5
:10014000055880CFE490E68AF000000090E68BE549
:100150004CF000000090E6A0E020E1F9E490E6B564
:10016000F002028290E6B57401F0120B0F40030218
:10017000028290E6BBE024FE602214603324FD601E
:100180001114602224067048E54F90E6B3F0E55064
:100190008037E55A90E6B3F0E55B802DE55190E6B7
:1001A000B3F0E5528023E55390E6B3F0E5548019AF
:1001B00090E6BAE0FF1209AAAA06A9077B01EA495C
:1001C0004B600DEE90E6B3F0EF90E6B4F0020282E1
:1001D00002027B120AE2020282120AFC020282126C
:1001E0000AF4020282120AD0020282120B114003A8
:1001F00002028290E6B8E0247F601A14601F240295
:10020000702CA200E43325E0FFA202E4334F90E714
:1002100040F0E48005E490E740F0A38004E490E738
:1002200041F090E68AF090E68B7402F08054804BA7
:10023000120B13504D90E6B8E024FE6011240270BA
:100240004190E6BAE0B40104C2008036802D90E609
:10025000BAE0602E8025120B15502790E6B8E024F6
:10026000FE60112402701B90E6BAE0B40104D200D3
:10027000801080078005120B17500790E6A0E0441D
:0902800001F090E6A0E04480F0DA
:010289002252
:03003300020B04B9
:040B040053D8EF32A1
:020B0B00D322F3
:020B0D00D322F1
:020B0F00D322EF
:080AF40090E6BAE0F555D322AB
:100AD00090E740E555F0E490E68AF090E68B04F06C
:020AE000D3221F
:080AFC0090E6BAE0F54BD322AD
:100AE20090E740E54BF0E490E68AF090E68B04F064
:020AF200D3220D
:020B1100D322ED
:020B1300D322EB
:020B1500D322E9
:020B1700D322E7
:1007A0000A2A2A2A4D656E75652A2A2A0A6C2D6C3A
:1007B0006973742073746174650A632D636C6F636D
:1007C0006B310A732D7374617274206932730A7805
:1007D0002D73746F70206932730A692D73657420EC
:1007E000696E706F72740A000A6678323A3E006869
:0507F000656C6C6F0058
:0A0AC5000321FF07A00324FF07E848
:030B0800020A449A
:0F05F00012083B8F19E519F46003120B08AF19BD
:0105FF0022D9
:100878008B1C8A1D891E1205F0EF640D6019EF6448
:100888000A6014AB1C051EE51EAA1D7002051D1486
:10089800F9EF12075780DFAB1CAA1DA91EE4120747
:0B08A800577F0D120B087F0A020B089F
:1009D5008B198A1A891BAB19AA1AA91B12073E6023
:1009E50013051BE51B7002051A14F912073EFF12C9
:0509F5000B0880E22266
:1004D9001205F0EFF4601FEF249470087BFF7A0790
:1004E90079EF8006AB21AA22A9231209D5AB24AA48
:0604F90025A9261209D519
:0104FF0022DA
:10083B0090E6A1E020E133C3E548954AE5496480A1
:10084B00F8E54764809850195380FE74802548F56D
:10085B0082E434E7F583E0FF0548E548700E054771
:0C086B002243800190E68D7404F07FFFB2
:01087700225E
:100A4400E5AA30E6FB90FC00EFF0E490E69CF000B1
:0B0A5400000090E69D04F0000000226E
:1009500090E6A2E020E12490E7C0740AF0A374209E
:10096000F0E4A3F0A3F0A3F0A3F0A3F0A37402F0CB
:0E097000E4A3F0A3F090E68F740AF00204D91D
:1006B80075B20375800390E600E054E74410F090AB
:1006C800E601E04440F000000090E60B7403F000FF
:1006D800000090E6047480F00000007408F0000048
:1006E80000E4F000000090E61074A0F00000009014
:1006F800E61174B0F000000090E612747FF000007C
:100708000090E613F000000090E614F0000000905E
:10071800E61574E0F0000000E490E61BF00000002D
:1007280075C83490E65EE04408F043AF01D200900B
:06073800E68D7404F022BE
:1009FA00C0E0C083C0825391EF90E65F7408F0753F
:100A0A00470075480090E68DE0754900F54AD082A6
:050A1A00D083D0E032A2
:100A5F00C0E0C083C082D2015391EF90E65D740174
:080A6F00F0D082D083D0E03208
:100A8F00C0E0C083C0825391EF90E65D7404F0D054
:060A9F0082D083D0E0329A
:100AA500C0E0C083C0825391EF90E65D7402F0D040
:060AB50082D083D0E03284
:1008B300C0E0C083C08290E680E030E70E854D51F2
:1008C300854E52855653855754800C85565185570E
:1008D30052854D53854E545391EF90E65D7410F05D
:0708E300D082D083D0E03287
:100A7700C0E0C083C082D2035391EF90E65D740853
:080A8700F0D082D083D0E032F0
:1008EA00C0E0C083C08290E680E030E70E854D51BB
:1008FA00854E52855653855754800C8556518557D7
:10090A0052854D53854E545391EF90E65D7420F015
:07091A00D082D083D0E0324F
:010B190032A9
:010B1A0032A8
:010B1B0032A7
:010B1C0032A6
:010B1D0032A5
:010B1E0032A4
:010B1F0032A3
:010B200032A2
:010B210032A1
:010B220032A0
:010B2300329F
:010B2400329E
:010B2500329D
:010B2600329C
:010B2700329B
:010B2800329A
:010B29003299
:010B2A003298
:010B2B003297
:010B2C003296
:010B2D003295
:010B2E003294
:010B2F003293
:010B30003292
:010B31003291
:010B32003290
:010B3300328F
:010B3400328E
:010B3500328D
:010B3600328C
:010B3700328B
:010B3800328A
:010B39003289
:010B3A003288
:010B3B003287
:03004300020600B2
:03005300020600A2
:10060000020A5F00020AA500020A8F00020A7700B0
:100610000208B3000208EA00020B1900020B1A00DC
:10062000020B1B00020B1C00020B1D000209FA004A
:10063000020B1E00020B1F00020B2000020B210008
:10064000020B2200020B1A00020B2300020B2400F3
:10065000020B2500020B2600020B2700020B2800CC
:10066000020B2900020B1A00020B1A00020B1A00DF
:10067000020B2A00020B2B00020B2C00020B2D0098
:10068000020B2E00020B2F00020B3000020B310078
:10069000020B3200020B3300020B3400020B350058
:1006A000020B3600020B3700020B3800020B390038
:0806B000020B3A00020B3B00B3
:10097E0090E682E030E004E020E60B90E682E03084
:10098E00E119E030E71590E680E04401F07F147E37
:0C099E00001207F590E680E054FEF02205
:1009210030040990E680E0440AF0800790E680E018
:100931004408F07FDC7E051207F590E65D74FFF058
:0F09410090E65FF05391EF90E680E054F7F022DC
:0209AA00A9079B
:1009AC00AE5CAF5D8F828E83A3E064037017AD01E4
:1009BC0019ED7001228F828E83E07C002FFDEC3EBE
:0809CC00FEAF0580DFE4FEFF31
:0109D4002200
:100A1F0090E682E044C0F090E681F0438701000049
:040A2F0000000022A1
:1007F5008E188F1990E600E054187012E51924013F
:10080500FFE43518C313F518EF13F519801590E6B5
:1008150000E05418FFBF100BE51925E0F519E518A0
:1008250033F518E5191519AE18700215184E60053F
:06083500120A3380EE22DE
:100A33007400F58690FDA57C05A3E582458370F9D6
:010A43002290
:100500001201000202000040B4041747000001027B
:1005100000010A0600020000004001000902430039
:10052000020100A0320904000001020201000524BA
:100530000010010424020205240600010524010024
:10054000010705810310000209040100020A0000EE
:1005500000070588020002000705010240000009AB
:10056000024300020100A037090400000102020159
:1005700000052400100104240202052406000105E0
:100580002401000107058103100001090401000294
:100590000A0000000705010240000007058802006C
:1005A0000200040309041003430079007000720084
:1005B000650073007300380345005A002D00550094
:1005C0005300420020004600580032002000560030
:1005D000490052005400550041004C0020004300E7
:1005E0004F004D00200050004F005200540000000A
:0300000002044DAA
:0C044D00787FE4F6D8FD75815D02049410
:10073E00BB010689828A83E0225002E722BBFE02B9
:09074E00E32289828A83E49322EC
:10075700BB010689828A83F0225002F722BBFE0181
:02076700F3227B
:10076900EB9FF5F0EA9E42F0E99D42F0E89C45F0E6
:01077900225D
:10077A00D083D082F8E4937012740193700DA3A30E
:10078A0093F8740193C0E0E8C0E0227402936860B1
:06079A00EFA3A3A380DF22
:1004590002028AE493A3F8E493A34003F68001F22D
:1004690008DFF48029E493A3F85407240CC8C333A4
:10047900C4540F4420C8834004F456800146F6DF73
:10048900E4800B0102040810204080900ABBE47E3E
:10049900019360BCA3FF543F30E509541FFEE49368
:1004A900A360010ECF54C025E060A840B8E493A32F
:1004B900FAE493A3F8E493A3C8C582C8CAC583CA5A
:1004C900F0A3C8C582C8CAC583CADFE9DEE780BE12
:010ACF000026
:00000001FF
