:0A093C000001020203030404050594
:1002B700E4F514F513F512F511C203C200C202C228
:1002C700011204AA7E067F008E238F24752B0675E4
:1002D7002C1275210675221C752906752A3C752D69
:1002E70006752E5CEE54C070030203B875150075D1
:1002F70016808E178F18C3747E9FFF74069ECF24B7
:1003070002CF3400FEE48F108E0FF50EF50DF50CBD
:10031700F50BF50AF509AF10AE0FAD0EAC0DAB0C32
:10032700AA0BA90AA809C312092B5033E518250CF3
:10033700F582E517350BF583E0FFE516250CF58209
:10034700E515350BF583EFF0E50C2401F50CE435E5
:100357000BF50BE4350AF50AE43509F50980B7858D
:10036700152385162474002480FF740634FFFEC30A
:10037700E52C9FF52CE52B9EF52BC3E5269FF5264F
:10038700E5259EF525C3E5289FF528E5279EF52752
:10039700C3E5229FF522E5219EF521C3E52A9FF5B6
:1003A7002AE5299EF529C3E52E9FF52EE52D9EF515
:1003B7002DD2E843D82090E668E04409F090E65C47
:1003C700E0443DF0D2AF90E680E020E105D2041290
:1003D70007B690E680E054F7F0538EF8C203120692
:1003E700E3300105120080C2013003F21204FE500F
:1003F700EDC20312083C20001690E682E030E704C5
:10040700E020E1EF90E682E030E604E020E0E4124D
:0704170007E51205FE80C796
:0B04F30090E50DE030E402C322D322AC
:1000800090E6B9E0700302013F1470030201BC2442
:10009000FE700302023F24FB700302013914700357
:1000A00002013314700302012714700302012D248E
:1000B0000560030202A312095A40030202AF90E650
:1000C000BBE024FE602714603824FD601114602713
:1000D00024067050E52390E6B3F0E524803C12043A
:1000E000F3503EE52B90E6B3F0E52C802DE525900E
:1000F000E6B3F0E5268023E52790E6B3F0E5288017
:100100001990E6BAE0FF120811AA06A9077B01EAD6
:10011000494B600DEE90E6B3F0EF90E6B4F00202CA
:10012000AF02029E02029E1209190202AF12094E8C
:100130000202AF1209460202AF1209070202AF1211
:10014000095C40030202AF90E6B8E0247F6015141A
:10015000601924027063A200E43325E0FFA202E4E8
:10016000334F8041E490E740F0803F90E6BCE0549C
:100170007EFF7E00E0D394807C0040047D018002FD
:100180007D00EC4EFEED4F243CF58274093EF58374
:10019000E493FF3395E0FEEF24A1FFEE34E68F8277
:1001A000F583E0540190E740F0E4A3F090E68AF094
:1001B00090E68B7402F00202AF02029E12095E40CA
:1001C000030202AF90E6B8E024FE6016240260034A
:1001D0000202AF90E6BAE0B40105C2000202AF022B
:1001E000029E90E6BAE0705590E6BCE0547EFF7E39
:1001F00000E0D394807C0040047D0180027D00EC0F
:100200004EFEED4F243CF58274093EF583E493FFE6
:100210003395E0FEEF24A1FFEE34E68F82F583E014
:1002200054FEF090E6BCE05480131313541FFFE01B
:10023000540F2F90E683F0E04420F08072805F122C
:100240000960506B90E6B8E024FE60192402704EFD
:1002500090E6BAE0B40104D200805490E6BAE064BB
:1002600002604C803990E6BCE0547EFF7E00E0D313
:1002700094807C0040047D0180027D00EC4EFEED08
:100280004F243CF58274093EF583E493FF3395E0F7
:10029000FEEF24A1FFEE34E68F82F583800D90E619
:1002A000A08008120962500790E6A0E04401F09097
:0602B000E6A0E04480F02E
:0102B6002225
:0300330002095669
:0409560053D8EF3251
:100861000232000002300000013500013600501054
:1008710000C0F9A4B0999282F880988883C6A186B5
:010881008EE8
:1004AA0090E600E054E74410F0908000E09090005D
:1004BA00E090A000E090B000E090E61274A2F00094
:1004CA00000090E61474E2F000000090E691748057
:1004DA00F0000000F000000043AF0190E65CE04449
:0804EA0002F090E65E7450F090
:0104F20022E7
:1006E300E5AA20E05AE5AA20E55574F0F59A7400CE
:1006F300F59B74F8F59D7400F59E90E690E0FE90EE
:10070300E691E07C002400FFEC3EFEE4FDC3ED9F98
:10071300EC9E500F90E67BE090E67CF00DBD00016F
:100723000C80EA90E690E090E698F000000090E6F6
:0F07330091E090E699F000000090E6917480F05C
:010742002294
:0204FE00D32207
:0205FE00D32206
:02095A00D322A6
:0809460090E6BAE0F534D3227B
:1009070090E740E534F0E490E68AF090E68B04F057
:02091700D322E9
:08094E0090E6BAE0F52FD32278
:1009190090E740E52FF0E490E68AF090E68B04F04A
:02092900D322D7
:02095C00D322A4
:02095E00D322A2
:02096000D322A0
:02096200D3229E
:1008C100C0E0C083C082D2015391EF90E65D740114
:0808D100F0D082D083D0E032A8
:1008F100C0E0C083C0825391EF90E65D7404F0D0F4
:0609010082D083D0E03239
:0D068000C0E0C083C082C0D075D000C007AC
:10068D007508005391EF90E65D7402F0D535059035
:10069D008000E0FFD53604909000E00531E5317023
:1006AD00020530D394E8E5306480948340067530BC
:1006BD0000753100C3E53194F4E5306480948150C8
:0B06CD000690B000E0800490B800E050
:0B06D800D007D0D0D082D083D0E03219
:10078000C0E0C083C082852925852A2685268285EA
:100790002583A37402F08521278522288528828558
:1007A0002783A37407F05391EF90E65D7410F0D0A7
:0607B00082D083D0E0328C
:1008D900C0E0C083C082D2035391EF90E65D7408F3
:0808E900F0D082D083D0E03290
:10074300C0E0C083C08290E680E030E720852125A9
:10075300852226852682852583A37402F085292791
:10076300852A28852882852783A37407F05391EF70
:0D07730090E65D7420F0D082D083D0E0329B
:010964003260
:01096500325F
:01096600325E
:01096700325D
:01096800325C
:01096900325B
:06088300C0E0C083C0824A
:100889005391EF90E65F7410F0909800E0F50875C9
:0208990036C85F
:07089B00D082D083D0E032CF
:01096A00325A
:0608A200C0E0C083C0822B
:1008A8005391EF90E65F7440F0908800E0F508758A
:0208B80035C841
:0708BA00D082D083D0E032B0
:01096B003259
:01096C003258
:01096D003257
:01096E003256
:01096F003255
:010970003254
:010971003253
:010972003252
:010973003251
:010974003250
:01097500324F
:01097600324E
:01097700324D
:01097800324C
:01097900324B
:01097A00324A
:01097B003249
:01097C003248
:01097D003247
:01097E003246
:01097F003245
:010980003244
:010981003243
:010982003242
:010983003241
:010984003240
:01098500323F
:100600001201000200000040B404041000000102C6
:1006100000010A060002000000400100090220005B
:1006200001010080320904000002FF0000000705FC
:1006300002020002000705860200020009022000F3
:1006400001010080320904000002FF0000000705DC
:10065000020240000007058602400000040309046E
:10066000100343007900700072006500730073008E
:100670000E0345005A002D005500530042000000B3
:03004300020500B3
:03005300020500A3
:100500000208C100020680000208F1000208D900BA
:100510000207800002074300020964000209650027
:100520000209660002096700020968000209690001
:100530000208830002096A000208A20002096B0097
:1005400002096C000209650002096D0002096E00D3
:1005500002096F00020970000209710002097200AD
:1005600002097300020965000209650002096500BD
:100570000209740002097500020976000209770079
:10058000020978000209790002097A0002097B0059
:1005900002097C0002097D0002097E0002097F0039
:1005A0000209800002098100020982000209830019
:0805B000020984000209850024
:1007E50090E682E030E004E020E60B90E682E0301F
:1007F500E119E030E71590E680E04401F07F147ED2
:0C080500001205B890E680E054FEF022DE
:1007B60030040990E680E0440AF0800790E680E085
:1007C6004408F07FDC7E051205B890E65D74FFF004
:0F07D60090E65FF05391EF90E680E054F7F02249
:02081100A90735
:10081300AE2DAF2E8F828E83A3E064037017AD01DC
:1008230019ED7001228F828E83E07C002FFDEC3E58
:08083300FEAF0580DFE4FEFFCB
:01083B00229A
:10083C0090E682E044C0F090E681F043870100002E
:04084C000000002286
:1005B8008E198F1A90E600E054187012E51A24017B
:1005C800FFE43519C313F519EF13F51A801590E6F2
:1005D80000E05418FFBF100BE51A25E0F51AE519DD
:1005E80033F519E51A151AAE19700215194E60057A
:0605F80012085080EE2203
:100850007400F58690FDA57C05A3E582458370F9BB
:010860002275
:0300000002041ED9
:0C041E00787FE4F6D8FD75813602046595
:10092B00EB9FF5F0EA9E42F0E99D42F0E89C45F022
:01093B002299
:10042A000202B7E493A3F8E493A34003F68001F22F
:10043A0008DFF48029E493A3F85407240CC8C333D3
:10044A00C4540F4420C8834004F456800146F6DFA2
:10045A00E4800B0102040810204080900861E47EC9
:10046A00019360BCA3FF543F30E509541FFEE49397
:10047A00A360010ECF54C025E060A840B8E493A35E
:10048A00FAE493A3F8E493A3C8C582C8CAC583CA89
:10049A00F0A3C8C582C8CAC583CADFE9DEE780BE41
:010882000075
:00000001FF
