:0A00F20000010202030304040505E7
:1008BC00E4F513F512F511F510C203C200C202C221
:1008CC0001120BB87E017F008E238F24752B0175CE
:1008DC002C14752101752220752901752AA8752DF6
:1008EC0001752EF2EE54E07003020A0275140075C5
:1008FC0015808E168F17C3741A9FFF74029ECF2417
:10090C0002CF3400FEE48F0F8E0EF50DF50CF50BB7
:10091C00F50AF509F508AF0FAE0EAD0DAC0CAB0B2F
:10092C00AA0AA909A808C3120E945026E515250B8E
:10093C00F582E514350AF58374CDF0E50B2401F549
:10094C000BE4350AF50AE43509F509E43508F50830
:10095C0080C4E4F50BF50AF509F508AF0FAE0EAD42
:10096C000DAC0CAB0BAA0AA909A808C3120E945023
:10097C0033E517250BF582E516350AF583E0FFE51F
:10098C0015250BF582E514350AF583EFF0E50B24FC
:10099C0001F50BE4350AF50AE43509F509E43508E7
:1009AC00F50880B785142385152474002480FF7402
:1009BC000134FFFEC3E52C9FF52CE52B9EF52BC3D4
:1009CC00E5269FF526E5259EF525C3E5289FF52808
:1009DC00E5279EF527C3E5229FF522E5219EF5210B
:1009EC00C3E52A9FF52AE5299EF529C3E52E9FF537
:1009FC002EE52D9EF52DD2E843D82090E668E044F4
:100A0C0009F090E65CE0443DF0D2AF90E680E02047
:100A1C00E105D204120D3F90E680E054F7F0538EBE
:100A2C00F8C20330010512049FC201300329120ED3
:100A3C00A55024C203120E5D20001690E682E03011
:100A4C00E704E020E1EF90E682E030E604E020E00D
:0C0A5C00E4120D6E120EA71206C380C734
:10049F0090E6B9E070030205501470030205CD24F5
:1004AF00FE700302065024FB700302054A1470030A
:1004BF00020544146073146076240560030206AFCE
:1004CF00120EA940030206BB90E6BBE024FE602299
:1004DF0014603324FD601114602224067048E52354
:1004EF0090E6B3F0E5248037E52B90E6B3F0E52CEA
:1004FF00802DE52590E6B3F0E5268023E52790E6ED
:10050F00B3F0E528801990E6BAE0FF120D9AAA061B
:10051F00A9077B01EA494B600DEE90E6B3F0EF902F
:10052F00E6B4F00206BB0206B4120E820206BB123C
:10053F00021C0206BB120AF40206BB1200E00206FE
:10054F00BB120EAB40030206BB90E6B8E0247F60FF
:10055F001514601924027063A200E43325E0FFA292
:10056F0002E4334F8041E490E740F0803F90E6BCD7
:10057F00E0547EFF7E00E0D394807C0040047D0138
:10058F0080027D00EC4EFEED4F24F2F58274003EAA
:10059F00F583E493FF3395E0FEEF24A1FFEE34E6FD
:1005AF008F82F583E0540190E740F0E4A3F090E6EA
:1005BF008AF090E68B7402F00206BB0206B4120EAC
:1005CF00AD40030206BB90E6B8E024FE601624029D
:1005DF0060030206BB90E6BAE0B40105C200020652
:1005EF00BB0206B490E6BAE0705590E6BCE0547ECC
:1005FF00FF7E00E0D394807C0040047D0180027D6B
:10060F0000EC4EFEED4F24F2F58274003EF583E4CC
:10061F0093FF3395E0FEEF24A1FFEE34E68F82F5D2
:10062F0083E054FEF090E6BCE05480131313541F84
:10063F00FFE0540F2F90E683F0E04420F0806D80B0
:10064F0064120EAF506690E6B8E024FE60192402E3
:10065F00705A90E6BAE0B40104D200804F90E6BA27
:10066F00E064026047803E90E6BCE0547EFF7E006F
:10067F00E0D394807C0040047D0180027D00EC4E2D
:10068F00FEED4F24F2F58274003EF583E493FF33C1
:10069F0095E0FEEF24A1FFEE34E68F82F58380080C
:1006AF00120EB1500790E6A0E04401F090E6A0E0F2
:0306BF004480F084
:0106C2002215
:030033000200FCCC
:0400FC0053D8EF32B4
:100100001201000200000040B404F10000000102EE
:020110000001EC
:0A0114000A0600020000004001008E
:1001200009028700010100A0320904000001FF005C
:100130000000070582020002000904000101FF001F
:100140000000070502020002000904000202FF008D
:1001500000000705820200020007050602000200F7
:100160000904000301FF00000007058201001401DB
:100170000904000401FF000000070502010014014A
:100180000904000501FF00000007058201000401C9
:100190000904000602FF00000007058201000401B7
:0701A0000705060100040140
:1001A80009024900010100A0320904000001FF0012
:1001B8000000070582024000010904000101FF0058
:1001C8000000070502024000010904000201FF00C7
:1001D800000007058201FF03010904000301FF0075
:0901E800000007050201FF0301FC
:1001F20004030904100343007900700072006500D3
:10020200730073001403430059002D00530074005F
:0A0212007200650061006D0000003D
:030AFC00011A00DC
:100BB80090E600E054E74410F000000090E601E001
:100BC8004440F000000090E610E0547FF000000080
:100BD80090E611E0547FF000000090E613E0547FA7
:100BE800F000000090E614E0547FF000000090E66A
:100BF80015E0547FF000000090E61274E0F090E6F3
:100C08005CE04402F0E4F51BF51C7D01FCE51C905A
:100C1800F000F0E51BA3F090E685E090F002F0907C
:100C2800E684E090F003F090E686E090F004F07F30
:100C3800057E0074002FF58274F03EF583EDF00F09
:100C4800BF00010EE4B507EBEEB404E790E690743C
:100C580002F0E490E691F00DBD00010CED64054C46
:040C680070ABD2009B
:010C6C002265
:1006C30090E680E020E703020810E51AB407004033
:1006D300030208BB9006DEF82828730206F302071C
:1006E300B80207320207790207B80207790207C581
:1006F300E5AA30E1030208BBE51C90F000F0E51B1E
:10070300A3F090E685E090F002F090E684E090F0AC
:1007130003F090E686E090F004F090E6907402F027
:10072300E490E691F0051CE51C70C5051B80C1E54E
:10073300AA20E137E51C90F000F0E51BA3F090E65A
:1007430085E090F002F090E684E090F003F090E60C
:1007530086E090F004F090E6907402F0E490E69165
:10076300F0051CE51C70C8051B80C4E5AA30E40332
:100773000208BB020809E5AA30E1030208BBE51C35
:1007830090F000F0E51BA3F090E685E090F002F016
:1007930090E684E090F003F090E686E090F004F0B9
:1007A30090E6907404F0E490E691F0051CE51C706B
:1007B300C5051B80C1E5AA30E0030208BB90E691A2
:1007C3008047E5AA20E137E51C90F000F0E51BA384
:1007D300F090E685E090F002F090E684E090F0037C
:1007E300F090E686E090F004F090E6907404F0E474
:1007F30090E691F0051CE51C70C8051B80C4E5AAB2
:1008030030E4030208BB90E6997480F022E51A14E1
:10081300604F1460591470030208AE24036003028E
:1008230008BBE5AA30E1030208BBE51C90F000F029
:10083300E51BA3F090E685E090F002F090E684E0FB
:1008430090F003F090E686E090F004F0E490E690F8
:10085300F090E6917440F0051CE51C70C5051B8003
:10086300C1E5AA20E05290E6917480F080F3E5AAF6
:1008730020E145E51C90F000F0E51BA3F090E68530
:10088300E090F002F090E684E090F003F090E686CA
:10089300E090F004F090E6907403F090E69174FF1A
:1008A300F0051CE51C70C7051B80C3E5AA20E00802
:0908B30090E6917480F080F322BC
:020EA500D32256
:020EA700D32254
:020EA900D32252
:080AF40090E6BAE0F51DD322E3
:1000E00090E740E51DF0E490E68AF090E68B04F09E
:0200F000D32219
:10021C0090E6BAE0F51A90E680E020E70302037E50
:10022C00E51AB40700400302049D90023DF828280B
:10023C00730202520202550202580202BB0202F978
:10024C000202FC0203390203960203F190E61274D7
:10025C00E0F000000090E61474A0F000000090E6BE
:10026C0010E0547FF000000090E611E0547FF000A5
:10027C00000090E613E0547FF000000090E615E0DB
:10028C00547FF000000090E6047480F000000074CD
:10029C0002F0000000E4F000000090E6837412F01D
:1002AC007432F090E6997480F000000002046C90B7
:1002BC00E61274D8F0000000E490E615F090E61415
:1002CC00F090E613F090E611F090E610F0000000CC
:1002DC0090E6047480F00000007402F0000000E46A
:1002EC00F000000090E6407403F002049D020472DA
:1002FC0090E61274D8F0000000E490E615F090E659
:10030C0014F090E613F090E611F090E610F0000077
:10031C000090E6047480F00000007402F00000000D
:10032C00E4F000000090E64004F002049D90E61218
:10033C0074DAF000000090E614749AF0000000E407
:10034C0090E615F090E613F090E611F090E610F0C0
:10035C0000000090E6047480F00000007402F000CD
:10036C000000E4F000000090E64004F090E69902F2
:10037C000496E51A14606E14700302043B147003A7
:10038C000204722403600302049D90E61274E0F0F0
:10039C0000000090E610E0547FF000000090E611A1
:1003AC00E0547FF000000090E613E0547FF0000072
:1003BC000090E614E0547FF000000090E615E05445
:1003CC007FF000000090E6047480F00000007402DE
:1003DC00F0000000E4F000000090E6837412F0746A
:1003EC0032F002049D90E61274A0F000000090E63A
:1003FC0010E0547FF000000090E611E0547FF00014
:10040C00000090E613E0547FF000000090E614E04A
:10041C00547FF000000090E615E0547FF0000000DF
:10042C0090E6917480F0000000F0000000805D9078
:10043C00E61274D8F0000000E490E615F090E61493
:10044C00F090E613F090E611F090E610F00000004A
:10045C0090E6047480F00000007402F0000000E4E8
:10046C00F0000000802BE490E615F090E614F0907C
:10047C00E613F090E611F090E610F000000090E624
:10048C00127498F000000090E6917480F000000067
:03049C00F0D32278
:100E820090E740E51AF0E490E68AF090E68B04F0F1
:020E9200D32269
:020EAB00D32250
:020EAD00D3224E
:020EAF00D3224C
:020EB100D3224A
:100DC500C0E0C083C082C085C084C086758600D25D
:100DD500015391EF90E65D7401F0D086D084D08503
:070DE500D082D083D0E03280
:100E1300C0E0C083C082C085C084C086758600538D
:100E230091EF90E65D7404F0D086D084D085D082B3
:050E3300D083D0E03285
:100E3800C0E0C083C082C085C084C0867586005368
:100E480091EF90E65D7402F0D086D084D085D08290
:050E5800D083D0E03260
:100CFA00C0E0C083C082C085C084C0867586008576
:100D0A002925852A26852682852583A37402F085CE
:100D1A002127852228852882852783A37407F053F3
:100D2A0091EF90E65D7410F0D086D084D085D082A1
:050D3A00D083D0E0327F
:100DEC00C0E0C083C082C085C084C086758600D236
:100DFC00035391EF90E65D7408F0D086D084D085D3
:070E0C00D082D083D0E03258
:10008000C0E0C083C082C085C084C08675860090F1
:10009000E680E030E7288521258522268526828591
:1000A0002583A37402F0852927852A28852882853F
:1000B0002783A37407F090E6407403F0800C852931
:1000C00025852A268521278522285391EF90E65DF4
:1000D0007420F0D086D084D085D082D083D0E03216
:010EB300320C
:010EB400320B
:010EB500320A
:010EB6003209
:010EB7003208
:010EB8003207
:100C6D00C0E0C083C082C085C084C086758600C0C8
:100C7D00D0E51A24FE601624FE600824FE600E24C2
:100C8D00057015E5AA20E01090E6918008E5AA20F0
:100C9D00E40690E6997480F0D0D0D086D084D085CB
:070CAD00D082D083D0E032B9
:010EB9003206
:010EBA003205
:010EBB003204
:010EBC003203
:010EBD003202
:010EBE003201
:010EBF003200
:010EC00032FF
:010EC10032FE
:010EC20032FD
:010EC30032FC
:010EC40032FB
:010EC50032FA
:010EC60032F9
:010EC70032F8
:010EC80032F7
:010EC90032F6
:010ECA0032F5
:010ECB0032F4
:010ECC0032F3
:010ECD0032F2
:010ECE0032F1
:010ECF0032F0
:010ED00032EF
:010ED10032EE
:010ED20032ED
:010ED30032EC
:010ED40032EB
:010ED50032EA
:03004300020B00AD
:03005300020B009D
:100B0000020DC500020E3800020E1300020DEC00AB
:100B1000020CFA0002008000020EB300020EB400C4
:100B2000020EB500020EB600020EB700020EB800AB
:100B3000020C6D00020EB900020EBA00020EBB00DC
:100B4000020EBC00020EB400020EBD00020EBE007A
:100B5000020EBF00020EC000020EC100020EC20053
:100B6000020EC300020EB400020EB400020EB40066
:100B7000020EC400020EC500020EC600020EC7001F
:100B8000020EC800020EC900020ECA00020ECB00FF
:100B9000020ECC00020ECD00020ECE00020ECF00DF
:100BA000020ED000020ED100020ED200020ED300BF
:080BB000020ED400020ED50074
:100D6E0090E682E030E004E020E60B90E682E03090
:100D7E00E119E030E71590E680E04401F07F147E43
:0C0D8E0000120CB490E680E054FEF0224D
:100D3F0030040990E680E0440AF0800790E680E0F6
:100D4F004408F07FDC7E05120CB490E65D74FFF072
:0F0D5F0090E65FF05391EF90E680E054F7F022BA
:020D9A00A907A7
:100D9C00AE2DAF2E8F828E83A3E064037017AD014E
:100DAC0019ED7001228F828E83E07C002FFDEC3ECA
:080DBC00FEAF0580DFE4FEFF3D
:010DC400220C
:100E5D0090E682E044C0F090E681F0438701000007
:040E6D00000000225F
:100CB4008E188F1990E600E054187012E51924017B
:100CC400FFE43518C313F518EF13F519801590E6F2
:100CD40000E05418FFBF100BE51925E0F519E518DD
:100CE40033F518E5191519AE18700215184E60057C
:060CF400120E7180EE22D9
:100E71007400F58690FDA57C05A3E582458370F994
:010E8100224E
:03000000020A6889
:0C0A6800787FE4F6D8FD75812E020AAFFD
:100E9400EB9FF5F0EA9E42F0E99D42F0E89C45F0B4
:010EA400222B
:100A74000208BCE493A3F8E493A34003F68001F2D4
:100A840008DFF48029E493A3F85407240CC8C33383
:100A9400C4540F4420C8834004F456800146F6DF52
:100AA400E4800B0102040810204080900AFCE47EDC
:100AB400019360BCA3FF543F30E509541FFEE49347
:100AC400A360010ECF54C025E060A840B8E493A30E
:100AD400FAE493A3F8E493A3C8C582C8CAC583CA39
:100AE400F0A3C8C582C8CAC583CADFE9DEE780BEF1
:010AFF0000F6
:00000001FF
