:10059B000A2A2A2A4D656E75652A2A2A0A6C2D6C41
:1005AB006973742073746174650A632D636C6F6374
:1005BB006B310A732D7374617274206932730A780C
:1005CB002D73746F70206932730A692D73657420F3
:1005DB00696E706F72740A000A6678323A3E006870
:0F05EB00656C6C6F000001020203030404050538
:100359005210001201000200000040030401600075
:1003690006010203014A10120A06000200000040B9
:1003790001006020101C09021234010100A02D099E
:1003890004000002FFFFFF02070581024000000789
:1003990005010240000044103C040309044A1040CE
:1003A9000A0346005400440049006020104A200313
:1003B900460054003200330032005200200055003C
:1003C90053004200200055004100520054005210D1
:1003D9006A1203410035003000320038003500420E
:1003E900004900C100C101C102010D00010E000355
:0903F9000FFF059B0312FF05E351
:1006B10012040390E680E0440AF07FDC7E05120715
:1006C1006F90E65D74FFF090E65FF05391EF90E676
:1006D100FBE04402F090E680E054F7F01207FE8F51
:0606E1001A1207E180F689
:0106E70022F0
:1000800090E6B8E0546024C0700302034524406049
:100090000302034A90E6B9E070030201A81470035A
:1000A00002024324FE70030202D124FB700302010A
:1000B0009714700302018E1470030201741470030C
:1000C0000201852405600302033C90E6BBE024FEA8
:1000D000602B14604224FD601714602E2406600318
:1000E00002016A741090E6B3F07400A3F0020351A9
:1000F000741090E6B3F07412A3F0020351741090E0
:10010000E6B3F0741CA3F0020351741090E6B3F050
:10011000741CA3F002035190E6BAE014601214605C
:100120001714601C2403702075081075093C801D8D
:10013000750810750940801575081075094A800DFD
:1001400075081075096A8005E4F508F509E50945A3
:1001500008600DE50890E6B3F0E509A3F00203514D
:1001600090E6A0E04401F002035190E6A0E04401D3
:10017000F002035190E740E50BF0E490E68AF0A32B
:1001800004F002035190E6BAE0F50B02035190E649
:10019000BAE0F50A02035190E740E50AF0E490E680
:1001A0008AF0A304F002035190E6B8E0247F6029AE
:1001B00014603824026003020239A201E433FF25EF
:1001C000E0FFA202E4334F90E740F0E4A3F090E6B2
:1001D0008AF0A37402F0020351E490E740F0A3F028
:1001E00090E68AF0A37402F002035190E6BCE0545A
:1001F0007EFF7E00E0D3948040067C007D01800479
:100200007C007D00EC4EFEED4F24F0F58274053E3F
:10021000F583E493FF3395E0FEEF24A1FFEE34E68F
:100220008F82F583E0540190E740F0E4A3F090E67C
:100230008AF0A37402F002035190E6A0E04401F0BA
:1002400002035190E6B8E024FE601D240260030220
:10025000035190E6BAE0B40105C20102035190E6F1
:10026000A0E04401F002035190E6BAE0705990E634
:10027000BCE0547EFF7E00E0D3948040067C007D8D
:100280000180047C007D00EC4EFEED4F24F0F582F1
:1002900074053EF583E493FF3395E0FEEF24A1FF60
:1002A000EE34E68F82F583E054FEF090E6BCE05435
:1002B00080FF131313541FFFE0540F2F90E683F0B9
:1002C000E04420F002035190E6A0E04401F0020374
:1002D0005190E6B8E024FE601B2402705690E6BA06
:1002E000E0B40107300004D201806690E6A0E0444B
:1002F00001F0805D90E6BCE0547EFF7E00E0D39488
:100300008040067C007D0180047C007D00EC4EFE78
:10031000ED4F24F0F58274053EF583E493FF3395A9
:10032000E0FEEF24A1FFEE34E68F82F583E0440186
:10033000F0801E90E6A0E04401F0801590E6A0E079
:100340004401F0800C120656400790E6A0E04401FC
:09035000F090E6A0E04480F022E8
:1004030075B20375800353B5F743B50243B0027564
:10041300891190E600E054E74410F0E4F58EF50806
:1004230075092090101EE509F0E508A3F090E60198
:1004330074C0F000000090E60B7403F0000000901D
:10044300E6047480F0000000740FF0000000E4F094
:1004530000000090E61174A0F000000090E610F098
:1004630000000090E68D7404F000000090E6127422
:100473007FF0000000A3F0000000A3F0000000A341
:1004830074E0F0000000E490E668F090E660F0901D
:10049300E6B504F090E65EE04404F090E65C740197
:0704A300F0F5E875A88022C6
:030043000205367D
:10053600C0E0C0F0C083C082C0D075D000C000C08B
:1005460001C002C003C004C005C006C00790E6662D
:10055600E024D8600F2428701E90E65D7401F01226
:100566000080801390E65F7404F0750D0290E7C07A
:100576007411F0A37460F05391EFD007D006D00544
:10058600D004D003D002D001D000D0D0D082D08306
:05059600D0F0D0E032BE
:040831001206E822A1
:1007FE001207468F1BE51BF46003120831E51BB48C
:09080E000D057F0A120831AF1B31
:0108170022BE
:100797008B158A168917AB15AA16A91712081860A0
:1007A700130517E5177002051614F9120818FF123A
:0507B700083180E22280
:0207BC008F1894
:1007BE00E4F519E51875F00A84E5F02430FF120807
:1007CE0031E51875F00A84F5180519E519C3940377
:0207DE0040E1F8
:0107E00022F6
:10071C001207FEEFF46022EF2494700B7BFF7A0536
:10072C0079EA1207978009AB0FAA10A91112079743
:09073C00AB12AA13A914120797CD
:010745002291
:1007460090E6A1E020E11F90E68DE0B50E08740466
:10075600F0E4F50E80107480250EF582E434E7F59A
:0807660083E0FF050E227FFF76
:01076E002268
:1006E80090E6A2E020E12174C0250DF582E434E70C
:1006F800F583EFF0E50DD3943F400B90E68FE50DC1
:10070800F00000008002050DC28EC28FE4F58BF563
:040718008DD28E22CE
:10076F00EEC4F854F0C868FEEFC4540F48FFE4F528
:10077F008CF58AD28CEF4E600C308DF9EF1F700123
:07078F001EC28D80F0C28C38
:010796002240
:1007E100E50CB41017D28E308F1290E6A2E020E112
:0D07F1000990E68FE50DF0000000C28F2298
:1006560090E6B8E0B44019A3E024FB601124052419
:10066600F8504614700890E6BAE0F50C803BC322B9
:1006760090E6B8E064C07031A3E024F66019240562
:10068600702590E7407411F0A37460F0E490E68A58
:10069600F0A37402F0801290E7407410F0E490E644
:0B06A6008AF0A304F08002C322D322DC
:1005FA00C0E0C0D0EFC2B17A0E782ED8FEDAFC790C
:10060A00081392B17A0E782ED8FEDAFCD9F3D2B159
:10061A00137A0E782ED8FEDAFCD0D0D0E022C0E0D1
:10062A00C0D074FFF8F930B306D8FBD9F980177A2D
:10063A00077817D8FEDAFC79087A0E782ED8FEDA0F
:0C064A00FCA2B313D9F3FFD0D0D0E02203
:030000000204AA4D
:0C04AA00787FE4F6D8FD7581200204F193
:10081800BB010689828A83E0225002E722BBFE02DE
:09082800E32289828A83E4932211
:1004B6000206B1E493A3F8E493A34003F68001F2A5
:1004C60008DFF48029E493A3F85407240CC8C33347
:1004D600C4540F4420C8834004F456800146F6DF16
:1004E600E4800B0102040810204080900359E47E4A
:1004F600019360BCA3FF543F30E509541FFEE4930B
:10050600A360010ECF54C025E060A840B8E493A3D1
:10051600FAE493A3F8E493A3C8C582C8CAC583CAFC
:10052600F0A3C8C582C8CAC583CADFE9DEE780BEB4
:0104020000F9
:00000001FF
